:100000000C9434000C9446000C9446000C9446006A
:100010000C9446000C9446000C9446000C94460048
:100020000C9446000C9446000C9446000C94460038
:100030000C9446000C9446000C9446000C94460028
:100040000C946A000C9446000C9446000C944600F4
:100050000C9446000C9446000C9446000C94460008
:100060000C9446000C94460011241FBECFEFD8E03C
:10007000DEBFCDBF11E0A0E0B1E001C01D92A23013
:10008000B107E1F70E9448000C9481000C94000035
:10009000569A85B5846085BD80916E00816080939D
:1000A0006E0016BC1092010110920001789420E4B9
:1000B00080910001909101010C97D0F386B58533B2
:1000C000B8F38BB182278BB916BC10920101109244
:1000D0000001EECF1F920F920FB60F9211248F9353
:1000E0009F938091000190910101019690930101ED
:1000F000809300019F918F910F900FBE0F901F90E2
:060100001895F894FFCFF2
:00000001FF
