:100000000C9434000C943E000C943E000C943E0082
:100010000C943E000C943E000C943E000C943E0068
:100020000C943E000C943E000C943E000C943E0058
:100030000C943E000C943E000C943E000C943E0048
:100040000C943E000C943E000C943E000C943E0038
:100050000C943E000C943E000C943E000C943E0028
:100060000C943E000C943E0011241FBECFEFD8E04C
:10007000DEBFCDBF0E9440000C9498000C9400009D
:1000800084B5816884BD85B5836085BD569A6AE074
:1000900040E951E072E3E4E6F6E9A8ECBAEF67BDA7
:1000A00020E030E0CA010197F1F72F5F3F4F87E072
:1000B000203D3807B9F777BD20E030E0CA0101974D
:1000C000F1F72F5F3F4F87E0203D3807B9F7E7BDD5
:1000D00020E030E0CA010197F1F72F5F3F4F87E042
:1000E000203D3807B9F7F7BD20E030E0CA0101979D
:1000F000F1F72F5F3F4F87E0203D3807B9F7A7BDE5
:1001000020E030E0CA010197F1F72F5F3F4F87E011
:10011000203D3807B9F7B7BD20E030E0CA010197AC
:10012000F1F72F5F3F4F87E0203D3807B9F7B7CF92
:04013000F894FFCF71
:00000001FF
