:100000000C9434000C9448000C945C000C94460052
:100010000C9470000C9446000C9446000C9446001E
:100020000C9446000C9446000C9446000C94460038
:100030000C9446000C9446000C9446000C94460028
:100040000C9446000C9446000C9446000C94460018
:100050000C9446000C9446000C9446000C94460008
:100060000C9446000C94460011241FBECFEFD8E03C
:10007000DEBFCDBF11E0A0E0B1E001C01D92A6300F
:10008000B107E1F70E9484000C9424010C94000055
:100090001F920F920FB60F9211248F939F9381E0BE
:1000A00090E090930101809300019F918F910F90B8
:1000B0000FBE0F901F9018951F920F920FB60F92C0
:1000C00011248F939F9381E090E09093030180939C
:1000D00002019F918F910F900FBE0F901F90189566
:1000E0001F920F920FB60F9211248F939F9381E06E
:1000F00090E090930501809304019F918F910F9060
:100100000FBE0F901F9018950E94070140E951E023
:100110008091000190910101019709F439C080910B
:10012000020190910301019709F449C080910401F3
:1001300090910501019709F459C0289820E030E01A
:10014000CA010197F1F72F5F3F4F87E0203D380745
:10015000B9F7299820E030E0CA010197F1F72F5F45
:100160003F4F87E0203D3807B9F72E9820E030E078
:10017000CA010197F1F72F5F3F4F87E0203D380715
:10018000B9F78091000190910101019709F0C7CF63
:10019000289A20E030E0CA010197F1F72F5F3F4F26
:1001A00087E0203D3807B9F7109201011092000155
:1001B0008091020190910301019709F0B7CF299A2C
:1001C00020E030E0CA010197F1F72F5F3F4F87E051
:1001D000203D3807B9F71092030110920201809177
:1001E000040190910501019709F0A7CF2E9A20E014
:1001F00030E0CA010197F1F72F5F3F4F87E0203DC4
:100200003807B9F7109205011092040181CF209AA6
:10021000219A269A52985A9A53985B9A3C98449AF3
:10022000E9E6F0E08081836080838DB383608DBBDD
:10023000E8E6F0E0808182608083ECE6F0E0808197
:0C0240008061808378940895F894FFCFCB
:00000001FF
