:100000000C9434000C9446000C9446000C9446006A
:100010000C9446000C9446000C9446000C94460048
:100020000C9446000C9446000C9446000C94460038
:100030000C9446000C9475000C9446000C944600F9
:100040000C9446000C9446000C9446000C94460018
:100050000C9446000C9446000C9446000C94460008
:100060000C9446000C94460011241FBECFEFD8E03C
:10007000DEBFCDBF11E0A0E0B1E001C01D92A23013
:10008000B107E1F70E9448000C948C000C9400002A
:10009000569A8091810084608093810080916F00E6
:1000A000816080936F0010928500109284001092FE
:1000B000010110920001789420E480910001909158
:1000C00001010C97D0F38091840090918500C59731
:1000D000A0F38BB182278BB9109285001092840017
:1000E0001092010110920001E8CF1F920F920FB6FB
:1000F0000F9211248F939F938091000190910101A1
:10010000019690930101809300019F918F910F9030
:0C0110000FBE0F901F901895F894FFCFC1
:00000001FF
